:020000040810E2
:100000000080041065201008A5081008AB0810082F
:10001000B1081008B7081008BD081008000000005B
:10002000000000000000000000000000C3081008ED
:10003000D108100800000000DF081008ED081008C3
:10004000B5201008B5201008B5201008B5201008FC
:10005000B5201008B5201008B5201008B5201008EC
:10006000B5201008B5201008B5201008B5201008DC
:10007000B5201008B5201008B5201008B5201008CC
:10008000B5201008B5201008B5201008B5201008BC
:10009000B5201008B5201008B5201008B5201008AC
:1000A000B5201008B5201008B5201008B52010089C
:1000B000B5201008B5201008B5201008B52010088C
:1000C000B5201008B5201008B5201008B52010087C
:1000D000B5201008B5201008B5201008B52010086C
:1000E000B5201008B520100800000000B520100849
:1000F000B5201008B5201008B5201008B52010084C
:10010000B5201008B5201008B5201008B52010083B
:10011000B5201008B5201008B5201008B52010082B
:10012000B5201008B5201008B5201008B52010081B
:10013000B5201008B5201008B5201008B52010080B
:10014000F9081008B52010080000000000000000A9
:10015000B5201008B5201008B5201008B5201008EB
:10016000B5201008B5201008B5201008B5201008DB
:10017000B5201008B5201008B5201008B5201008CB
:10018000B5201008B5201008B5201008B5201008BB
:10019000B5201008B5201008B5201008B5201008AB
:1001A000B5201008B5201008B5201008B52010089B
:1001B000B5201008B5201008B5201008B52010088B
:1001C000B5201008B5201008B5201008B52010087B
:1001D000B5201008B5201008B5201008B52010086B
:1001E000B5201008B5201008B5201008B52010085B
:1001F000B5201008B5201008B5201008B52010084B
:10020000B5201008B5201008B5201008B52010083A
:10021000B5201008B5201008B5201008B52010082A
:10022000B5201008B5201008B52010080000000007
:10023000B5201008B5201008B5201008B52010080A
:10024000B5201008B5201008B5201008B5201008FA
:10025000B5201008B5201008B5201008B5201008EA
:10026000B5201008B5201008B5201008B5201008DA
:10027000B5201008B5201008B5201008B5201008CA
:10028000B5201008B5201008B520100800000000A7
:08029000B5201008B52010088C
:1002A00010B5054C237833B9044B13B10448AFF3B0
:1002B00000800123237010BD8800001000000000A2
:1002C000C033100808B5034B1BB103490348AFF313
:1002D000008008BD000000008C000010C033100832
:1002E00001F0FF01102A2BDB10F0070F08D010F8E7
:1002F000013B013A8B422DD010F0070F42B3F6D1EB
:10030000F0B441EA012141EA014122F007047FF003
:1003100000070023F0E80256083C85EA010586EA5A
:10032000010685FA47F5A3FA87F586FA47F6A5FA96
:1003300087F68EB9EED1F0BC01F0FF0102F00702A2
:1003400032B110F8013B013A83EA010313B1F8D14D
:100350000020704701387047002D06BF354603382E
:10036000073815F0010F07D1013015F4807F02BF67
:10037000013015F4C03F0130F0BC0138704700BFB8
:1003800080B586B000AF7860396000F0FAF907F107
:100390001003184600F046F807F10C03184600F069
:1003A0002FFA07F10803184600F068F907F1140363
:1003B000184601F080FF07F11403184601F086FF8C
:1003C000FEE7000080B483B000AF7860044A7B6829
:1003D0001A607B6818460C37BD465DF8047B704791
:1003E0007034100880B582B000AF78607868FFF78D
:1003F000E9FF0421786801F0BDFF7B6818460837E3
:10040000BD4680BD80B483B000AF7860044A7B688D
:100410001A607B6818460C37BD465DF8047B704750
:100420007034100880B582B000AF78607B681846E1
:10043000FFF7E8FF054A7B681A607B68044A13608F
:100440007B6818460837BD4680BD00BF5834100889
:10045000C400001080B582B000AF78603960084AEF
:100460003B6852F82300074A3B6832F813300122F8
:10047000194600F0F1FC00BF0837BD4680BD00BF43
:10048000000000100800001080B582B000AF786056
:100490003960084A3B6852F82300074A3B6832F843
:1004A00013300022194600F0D7FC00BF0837BD46C4
:1004B00080BD00BF000000100800001080B582B0B1
:1004C00000AF7860054A7B681A607B681846FFF7C2
:1004D00079FF7B6818460837BD4680BD5834100840
:1004E00080B582B000AF78607868FFF7E7FF04213D
:1004F000786801F03FFF7B6818460837BD4680BD2D
:1005000080B483B000AF7860044A7B681A607B686F
:1005100018460C37BD465DF8047B70479C341008C4
:1005200080B582B000AF78607868FFF7E9FF0421FA
:10053000786801F01FFF7B6818460837BD4680BD0C
:1005400080B483B000AF03463960FB713B685AB298
:1005500097F9073013405BB2DBB218460C37BD4643
:100560005DF8047B704780B485B000AF78600B46BF
:10057000FB707B68FB60FB78FB72FB680122114615
:10058000BFF35B8FD3E84F2FC3E8401F0028F9D19A
:10059000BFF35B8FD3B200BF18461437BD465DF87A
:1005A000047B704780B584B000AF78600B46FB7069
:1005B0007B68FB60FB78FB72FB7A4FF6FF71184695
:1005C000FFF7BEFF0346BB72FB68BFF35B8F0022E1
:1005D0001A70BFF35B8F00BF00BF1037BD4680BDF0
:1005E00080B582B000AF786005217868FFF7BBFF67
:1005F000034618460837BD4680BD80B582B000AFBF
:10060000786005217868FFF7CDFF00BF0837BD4649
:1006100080BD000080B500AF0C48FFF7E1FF034646
:10062000002B11D10A4B1B681B681A46094B1A6034
:10063000074B1B681A79074B1A71074B01221A7076
:100640000248FFF7DAFF00E000BF80BDA400001001
:100650000C000010A8000010B000001080B483B09F
:1006600000AF7860044A7B681A607B6818460C37D4
:10067000BD465DF8047B70479C34100880B582B09D
:1006800000AF78607B681846FFF7E8FF084A7B6890
:100690001A607B68074A1360074B084A1A600848CB
:1006A000FFF7ABFF7B6818460837BD4680BD00BF2B
:1006B00088341008BC000010B400001015061008A3
:1006C000A400001080B584B000AF78600F48FFF739
:1006D00087FF0346012B0CBF01230023DBB2002B55
:1006E00000D0F3E70023FB60094B1B78002B04D0FC
:1006F000084BFB60064B00221A700448FFF77DFF91
:10070000FB6818461037BD4680BD00BFA40000102E
:10071000B0000010A800001080B582B000AF786073
:10072000054A7B681A607B681846FFF7E9FE7B681C
:1007300018460837BD4680BD8834100880B582B0A1
:1007400000AF78607868FFF7E7FF0421786801F070
:1007500011FE7B6818460837BD4680BD80B483B063
:1007600000AF7860396000BF0C37BD465DF8047B90
:10077000704780B500AF4FF6FF710120FFF7EEFF25
:1007800080BD80B500AF00F0B5FB00F045F9042056
:1007900001F054FC00F0BAF820BF00BF80BD00009B
:1007A00080B483B000AF7860044A7B681A607B68CD
:1007B00018460C37BD465DF8047B7047C8341008F6
:1007C00080B582B000AF78607868FFF7E9FF042158
:1007D000786801F0CFFD7B6818460837BD4680BDBC
:1007E00080B483B000AF7860044A7B681A607B688D
:1007F00018460C37BD465DF8047B7047C8341008B6
:1008000080B582B000AF78607B681846FFF7E8FFDC
:10081000054A7B681A607B68044A13607B68184647
:100820000837BD4680BD00BFB0341008C0000010BE
:1008300080B582B000AF78603960386800F016FC8F
:1008400000BF0837BD4680BD80B582B000AF78607C
:100850000221002000F034FB00BF0837BD4680BDF8
:1008600080B582B000AF7860054A7B681A607B680B
:100870001846FFF795FF7B6818460837BD4680BDD0
:10088000B034100880B582B000AF78607868FFF7A8
:10089000E7FF0421786801F06DFD7B681846083792
:1008A000BD4680BD80B400AFFEE780B400AFFEE778
:1008B00080B400AFFEE780B400AFFEE780B400AFC5
:1008C000FEE780B400AF00BFBD465DF8047B704713
:1008D00080B400AF00BFBD465DF8047B704780B4B4
:1008E00000AF00BFBD465DF8047B704780B500AF28
:1008F00000F09CFB00BF80BD80B500AF0221024824
:1009000000F0C3FA00BF80BD0010025880B58AB065
:1009100000AF07F1140300221A605A609A60DA608F
:100920001A61394BD3F8E030374A43F00403C2F878
:10093000E030354BD3F8E03003F004033B613B6912
:10094000314BD3F8E030304A43F00203C2F8E030D4
:100950002D4BD3F8E03003F00203FB60FB682A4B19
:10096000D3F8E030284A43F00803C2F8E030264BC1
:10097000D3F8E03003F00803BB60BB68224BD3F828
:10098000E030214A43F01003C2F8E0301E4BD3F8A8
:10099000E03003F010037B607B68002201211B48DC
:1009A00000F05AFA00220221194800F055FA4FF4DB
:1009B00000537B610023BB610023FB6107F114033B
:1009C0001946144800F098F801237B610123BB61AC
:1009D0000023FB6100233B6207F1140319460B4817
:1009E00000F08AF802237B610123BB610023FB61D5
:1009F00000233B6207F114031946054800F07CF818
:100A000000BF2837BD4680BD00440258000402588C
:100A1000001002580008025880B59CB000AF07F1E2
:100A200024034C220021184601F082FC3B1D2022A9
:100A30000021184601F07CFC042001F0A5FA0023F7
:100A40003B60284BDB6A274A23F00103D362254B26
:100A5000DB6A03F001033B60234B9B6923F44043B3
:100A6000214A43F4004393611F4B9B6903F44043C5
:100A70003B603B6800BF1C4B9B6903F40053B3F51C
:100A8000005FF8D102237B6201233B6340237B6339
:100A90000023BB6407F12403184600F017FB03464C
:100AA000002B01D000F022F83F237B600023BB60C5
:100AB0000023FB6000233B6100237B610023BB61BB
:100AC0000023FB6100233B623B1D0121184600F01F
:100AD0002BFF0346002B01D000F008F800BF703751
:100AE000BD4680BD000400580048025880B400AFE5
:100AF00072B600BFFEE7000080B489B000AF786036
:100B000039600023FB61894B7B6194E13B681A6883
:100B10000121FB6901FA03F313403B613B69002BA0
:100B200000F086813B685B6803F00303012B05D06E
:100B30003B685B6803F00303022B30D17B689B6842
:100B4000BB61FB695B00032202FA03F3DB43BA6972
:100B50001340BB613B68DA68FB695B0002FA03F390
:100B6000BA691343BB617B68BA699A607B685B684A
:100B7000BB610122FB6902FA03F3DB43BA6913404C
:100B8000BB613B685B681B0903F00102FB6902FA69
:100B900003F3BA691343BB617B68BA695A603B6867
:100BA0005B6803F00303032B17D07B68DB68BB6132
:100BB000FB695B00032202FA03F3DB43BA691340CB
:100BC000BB613B689A68FB695B0002FA03F3BA6990
:100BD0001343BB617B68BA69DA603B685B6803F00A
:100BE0000303022B23D1FB69DA087B68083253F830
:100BF0002230BB61FB6903F007039B000F2202FA5E
:100C000003F3DB43BA691340BB613B681A69FB69B4
:100C100003F007039B0002FA03F3BA691343BB61B5
:100C2000FB69DA087B680832B96943F822107B68EF
:100C30001B68BB61FB695B00032202FA03F3DB4321
:100C4000BA691340BB613B685B6803F00302FB6950
:100C50005B0002FA03F3BA691343BB617B68BA69AC
:100C60001A603B685B6803F44033002B00F0E080BF
:100C70002F4BD3F8F4302E4A43F00203C2F8F4307D
:100C80002B4BD3F8F43003F00203FB60FB68294AD6
:100C9000FB699B08023352F82330BB61FB6903F008
:100CA00003039B000F2202FA03F3DB43BA691340EC
:100CB000BB617B68204A934252D07B681F4A9342B3
:100CC00031D07B681E4A93422BD07B681D4A9342E9
:100CD00025D07B681C4A93421FD07B681B4A9342F5
:100CE00019D07B681A4A934213D07B68194A934201
:100CF0000DD07B68184A934207D07B68174A93420D
:100D000001D109232DE00A232BE0082329E0072342
:100D100027E0062325E0052323E0042321E0032325
:100D20001FE002231DE001231BE000BFC0000058AC
:100D30000044025800040058000002580004025801
:100D400000080258000C0258001002580014025803
:100D500000180258001C02580020025800240258B3
:100D60000023FA6902F0030292009340BA69134328
:100D7000BB613849FB699B080233BA6941F82320FB
:100D80004FF0B0431B68BB613B69DB43BA6913405A
:100D9000BB613B685B6803F48013002B03D0BA6926
:100DA0003B691343BB614FF0B042BB6913604FF026
:100DB000B0435B68BB613B69DB43BA691340BB610D
:100DC0003B685B6803F40013002B03D0BA693B69EE
:100DD0001343BB614FF0B042BB6953607B695B68F2
:100DE000BB613B69DB43BA691340BB613B685B682D
:100DF00003F40033002B03D0BA693B691343BB6192
:100E00007B69BA695A607B691B68BB613B69DB43DC
:100E1000BA691340BB613B685B6803F48033002B05
:100E200003D0BA693B691343BB617B69BA691A6035
:100E3000FB690133FB613B681A68FB6922FA03F323
:100E4000002B7FF463AE00BF00BF2437BD465DF8C2
:100E5000047B70470004005880B483B000AF786012
:100E60000B467B8013467B707B78002B03D07A88FF
:100E70007B689A6103E07B881A047B689A6100BFF3
:100E80000C37BD465DF8047B704780B485B000AF79
:100E900078600B467B807B685B69FB607A88FB68C7
:100EA00013401A04FB68D9437B880B401A437B68C4
:100EB0009A6100BF1437BD465DF8047B704700009F
:100EC00080B483B000AF78600B46FB70084B1B69A1
:100ED000074A23F004031361FB78012B01D130BFD3
:100EE00000E020BF00BF0C37BD465DF8047B7047B3
:100EF00000ED00E080B582B000AF284BD3F8D830C9
:100F0000264A43F48043C2F8D830244BD3F8D83073
:100F100003F480433B603B68214B1B6823F47F2331
:100F200023F470631E4A43F4014313601C4B1B6897
:100F30001B4A43F001031360032001F08BF900F01A
:100F4000A9FE0246154B9B691B0A03F00F031549C6
:100F5000CB5C03F01F0322FA03F37B600F4B9B690A
:100F600003F00F030F4AD35C03F01F037A6822FAE1
:100F700003F30D4A13600C4B1B680C4A13600F20DF
:100F800000F01EF80346002B01D0012302E000F020
:100F90000FF8002318460837BD4680BD00440258AC
:100FA00000440240D83410081C0000101800001043
:100FB00080B400AF00BFBD465DF8047B7047000001
:100FC00080B582B000AF7860154B1B78002B01D143
:100FD000012321E0134B1A68114B1B7819464FF47B
:100FE0007A73B3FBF1F3B2FBF3F3184601F057F950
:100FF0000346002B01D001230EE07B680F2B0AD89B
:10100000002279684FF0FF3001F02FF9064A7B6823
:101010001360002300E0012318460837BD4680BD59
:1010200014000010180000101000001080B400AF71
:10103000064B1B781A46064B1B681344044A136080
:1010400000BFBD465DF8047B704700BF1400001070
:10105000B800001080B400AF034B1B681846BD46B3
:101060005DF8047B704700BFB800001080B584B005
:1010700000AF7860FFF7EEFFB8607B68FB60FB684D
:10108000B3F1FF3F05D00A4B1B781A46FB681344A7
:10109000FB6000BFFFF7DEFF0246BB68D31AFA68A9
:1010A0009A42F7D800BF00BF1037BD4680BD00BFD1
:1010B0001400001080B400AF034B1B681B0C1846D3
:1010C000BD465DF8047B70470010005C80B58CB0B5
:1010D00000AF78607B68002B02D1012300F01DBCBB
:1010E0007B681B6803F00103002B00F08780994B9D
:1010F0001B6903F03803FB62964B9B6ABB62FB6A79
:10110000102B07D0FB6A182B10D1BB6A03F0030326
:10111000022B0BD18F4B1B6803F40033002B6CD0D8
:101120007B685B68002B68D10123F6E37B685B6812
:10113000B3F5803F06D1874B1B68864A43F4803362
:1011400013602EE07B685B68002B0CD1814B1B6821
:10115000804A23F4803313607E4B1B687D4A23F45E
:10116000802313601DE07B685B68B3F5A02F0CD172
:10117000784B1B68774A43F480231360754B1B68D8
:10118000744A43F4803313600BE0724B1B68714A5E
:1011900023F4803313606F4B1B686E4A23F4802363
:1011A00013607B685B68002B13D0FFF753FF7862F6
:1011B00008E0FFF74FFF02467B6AD31A642B01D980
:1011C0000323AAE3634B1B6803F40033002BF0D026
:1011D00014E0FFF73FFF786208E0FFF73BFF0246AD
:1011E0007B6AD31A642B01D9032396E3594B1B68FE
:1011F00003F40033002BF0D100E000BF7B681B68D4
:1012000003F00203002B00F0CB80524B1B6903F06C
:1012100038033B624F4B9B6AFB613B6A002B07D054
:101220003B6A182B56D1FB6903F00303002B51D105
:10123000484B1B6803F00403002B05D07B68DB6878
:10124000002B01D1012368E3424B1B6823F01902F4
:101250007B68DB683F4913430B60FFF7FBFE786256
:1012600008E0FFF7F7FE02467B6AD31A022B01D98A
:10127000032352E3374B1B6803F00403002BF0D029
:10128000FFF718FF034641F20302934217D87B6829
:101290001B69402B08D12F4B5B6823F47C332D4A0C
:1012A00043F4003353607BE02A4B5B6823F47C32C9
:1012B0007B681B691B03274913434B6070E0254B78
:1012C0005B6823F0FE427B681B691B0621491343C0
:1012D0004B6065E07B68DB68002B48D01D4B1B68CA
:1012E00023F019027B68DB681A4913430B60FFF790
:1012F000B1FE786208E0FFF7ADFE02467B6AD31AC2
:10130000022B01D9032308E3124B1B6803F00403EB
:10131000002BF0D0FFF7CEFE034641F203029342CA
:101320001AD87B681B69402B08D10A4B5B6823F4F1
:101330007C33084A43F40033536031E0054B5B686B
:1013400023F47C327B681B691B03024913434B6007
:1013500026E000BF004402589A4B5B6823F0FE422F
:101360007B681B691B06974913434B6018E0954B3C
:101370001B68944A23F001031360FFF76BFE786249
:1013800008E0FFF767FE02467B6AD31A022B01D9F9
:101390000323C2E28B4B1B6803F00403002BF0D144
:1013A0007B681B6803F01003002B00F0A980854BBD
:1013B0001B6903F03803BB61824B9B6A7B61BB698D
:1013C000082B07D0BB69182B3AD17B6903F00303C4
:1013D000012B35D17B4B1B6803F48073002B05D0A8
:1013E0007B68DB69802B01D0012396E2FFF762FE68
:1013F000034641F20302934217D87B681B6A202BF5
:1014000008D1704B5B6823F0F8436E4A43F0804389
:10141000536075E06B4B5B6823F0F8427B681B6A96
:101420009B06684913434B606AE0664BDB6823F018
:101430007C527B681B6A1B0662491343CB605FE0EA
:101440007B68DB69002B42D05E4B1B685D4A43F032
:1014500080031360FFF7FEFD786208E0FFF7FAFDF6
:1014600002467B6AD31A022B01D9032355E2554B5E
:101470001B6803F48073002BF0D0FFF71BFE0346BC
:1014800041F20302934217D87B681B6A202B08D1D4
:101490004C4B5B6823F0F8434A4A43F08043536067
:1014A0002EE0484B5B6823F0F8427B681B6A9B0682
:1014B000444913434B6023E0424BDB6823F07C52EA
:1014C0007B681B6A1B063F491343CB6018E03D4B0A
:1014D0001B683C4A23F080031360FFF7BBFD786272
:1014E00008E0FFF7B7FD02467B6AD31A022B01D949
:1014F000032312E2334B1B6803F48073002BF0D1FB
:101500007B681B6803F00803002B36D07B685B699F
:10151000002B19D02B4B5B6F2A4A43F00103536712
:10152000FFF798FD786208E0FFF794FD02467B6ABA
:10153000D31A022B01D90323EFE1224B5B6F03F097
:101540000203002BF0D018E01E4B5B6F1D4A23F006
:1015500001035367FFF77EFD786208E0FFF77AFD2D
:1015600002467B6AD31A022B01D90323D5E1154B1E
:101570005B6F03F00203002BF0D17B681B6803F064
:101580002003002B39D07B689B69002B1CD00D4BAE
:101590001B680C4A43F480531360FFF75BFD7862CD
:1015A00008E0FFF757FD02467B6AD31A022B01D9E8
:1015B0000323B2E1034B1B6803F40053002BF0D06C
:1015C0001BE000BF004402589D4B1B689C4A23F45B
:1015D00080531360FFF73EFD786208E0FFF73AFDA5
:1015E00002467B6AD31A022B01D9032395E1944B5F
:1015F0001B6803F40053002BF0D17B681B6803F0D9
:101600000403002B00F081808E4B1B688D4A43F44D
:1016100080731360FFF71EFD786208E0FFF71AFD84
:1016200002467B6AD31A642B01D9032375E1854BEB
:101630001B6803F48073002BF0D07B689B68012B40
:1016400006D17F4B1B6F7E4A43F0010313672DE0E9
:101650007B689B68002B0CD1794B1B6F784A23F079
:1016600001031367764B1B6F754A23F0040313675E
:101670001CE07B689B68052B0CD1714B1B6F704A7B
:1016800043F0040313676E4B1B6F6D4A43F0010375
:1016900013670BE06A4B1B6F694A23F00103136762
:1016A000674B1B6F664A23F0040313677B689B68D4
:1016B000002B15D0FFF7CEFC78620AE0FFF7CAFCDA
:1016C00002467B6AD31A41F28832934201D903233E
:1016D00023E15B4B1B6F03F00203002BEED014E001
:1016E000FFF7B8FC78620AE0FFF7B4FC02467B6AB9
:1016F000D31A41F28832934201D903230DE1504BB2
:101700001B6F03F00203002BEED17B685B6A002B9A
:1017100000F002814A4B1B6903F03803182B00F0DC
:10172000BD807B685B6A022B40F09E80444B1B6847
:10173000434A23F080731360FFF78CFC786208E063
:10174000FFF788FC02467B6AD31A022B01D90323D8
:10175000E3E03B4B1B6803F00073002BF0D1384BE8
:101760009B6A23F47C7323F003037A68916A7A6896
:10177000D26A12010A43324913438B627B681B6BA6
:10178000013BC3F308027B685B6B013B5B029BB2CE
:101790001A437B689B6B013B1B0403F4FE031A4353
:1017A0007B68DB6B013B1B0603F0FE4324491343BC
:1017B0000B63234BDB6A224A23F00103D362204BE5
:1017C0005B6B23F47F4323F0F8037A68926CD200BA
:1017D0001B4913434B631A4BDB6A23F00C027B68F3
:1017E0001B6C17491343CB62154BDB6A23F00202D3
:1017F0007B685B6C12491343CB62114BDB6A104A66
:1018000043F48033D3620E4BDB6A0D4A43F400335A
:10181000D3620B4BDB6A0A4A43F48023D362084B42
:10182000DB6A074A43F00103D362054B1B68044A95
:1018300043F080731360FFF70DFC78620DE000BF8A
:101840000044025800480258FFF704FC02467B6A35
:10185000D31A022B01D903235FE0324B1B6803F03C
:101860000073002BF0D057E02E4B1B682D4A23F05D
:1018700080731360FFF7EEFB786208E0FFF7EAFB86
:1018800002467B6AD31A022B01D9032345E0254B7C
:101890001B6803F00073002BF0D13DE0214B9B6AE5
:1018A0003B61204B1B6BFB607B685B6A012B31D07B
:1018B0003B6903F003027B689B6A9A422AD13B6929
:1018C0001B0903F03F027B68DB6A9A4222D1FB6866
:1018D000C3F308027B681B6B013B9A421AD1FB6879
:1018E0005B0A03F07F027B685B6B013B9A4211D17C
:1018F000FB681B0C03F07F027B689B6B013B9A42E9
:1019000008D1FB681B0E03F07F027B68DB6B013B99
:101910009A4201D0012300E0002318463037BD462B
:1019200080BD00BF0044025880B586B000AF78602B
:1019300039607B68002B01D101239DE18A4B1B6834
:1019400003F00F033A689A4210D9874B1B6823F0C3
:101950000F0285493B6813430B60834B1B6803F000
:101960000F033A689A4201D0012385E17B681B6826
:1019700003F00403002B10D07B681A697B4B9B6932
:1019800003F070039A4208D9784B9B6923F07002E8
:101990007B681B69754913438B617B681B6803F087
:1019A0000803002B10D07B685A69704BDB6903F089
:1019B00070039A4208D96D4BDB6923F070027B6893
:1019C0005B696A491343CB617B681B6803F01003B2
:1019D000002B10D07B689A69644BDB6903F4E063E9
:1019E0009A4208D9614BDB6923F4E0627B689B690A
:1019F0005E491343CB617B681B6803F02003002B17
:101A000010D07B68DA69594B1B6A03F070039A4265
:101A100008D9564B1B6A23F070027B68DB69534977
:101A200013430B627B681B6803F00203002B10D08A
:101A30007B68DA684D4B9B6903F00F039A4208D923
:101A40004A4B9B6923F00F027B68DB6847491343CD
:101A50008B617B681B6803F00103002B55D0434B5F
:101A60009B6923F470627B689B68404913438B61D8
:101A70007B685B68022B07D13C4B1B6803F4003387
:101A8000002B21D10123F7E07B685B68032B07D192
:101A9000364B1B6803F00073002B15D10123EBE0DC
:101AA0007B685B68012B07D1304B1B6803F48073A4
:101AB000002B09D10123DFE02C4B1B6803F004034A
:101AC000002B01D10123D7E0284B1B6923F007022B
:101AD0007B685B68254913430B61FFF7BBFA7861AC
:101AE0000AE0FFF7B7FA02467B69D31A41F288325F
:101AF000934201D90323BFE01C4B1B6903F038025A
:101B00007B685B68DB009A42EBD17B681B6803F063
:101B10000203002B10D07B68DA68144B9B6903F03A
:101B20000F039A4208D2114B9B6923F00F027B6886
:101B3000DB680E4913438B610B4B1B6803F00F03EB
:101B40003A689A4214D2084B1B6823F00F020649E8
:101B50003B6813430B60044B1B6803F00F033A68A8
:101B60009A4205D0012387E0002000520044025829
:101B70007B681B6803F00403002B10D07B681A6994
:101B80003F4B9B6903F070039A4208D23C4B9B6920
:101B900023F070027B681B69394913438B617B68B2
:101BA0001B6803F00803002B10D07B685A69344B84
:101BB000DB6903F070039A4208D2314BDB6923F0F2
:101BC00070027B685B692E491343CB617B681B689D
:101BD00003F01003002B10D07B689A69284BDB6957
:101BE00003F4E0639A4208D2254BDB6923F4E062F8
:101BF0007B689B6922491343CB617B681B6803F0B8
:101C00002003002B10D07B68DA691D4B1B6A03F0A0
:101C100070039A4208D21A4B1B6A23F070027B6849
:101C2000DB69174913430B6200F034F80246144B8A
:101C30009B691B0A03F00F031249CB5C03F01F03DF
:101C400022FA03F33B610E4B9B6903F00F030D4A2D
:101C5000D35C03F01F033A6922FA03F30A4A1360C4
:101C6000094B1B68094A1360094B1B681846FFF7AC
:101C7000A7F90346FB73FB7B18461837BD4680BDAA
:101C800000440258D83410081C000010180000103E
:101C90001000001080B489B000AFB34B1B6903F093
:101CA0003803182B00F2558101A252F823F000BF2F
:101CB000151D1008531F1008531F1008531F10083C
:101CC000531F1008531F1008531F1008531F1008EC
:101CD0003B1D1008531F1008531F1008531F1008F6
:101CE000531F1008531F1008531F1008531F1008CC
:101CF000411D1008531F1008531F1008531F1008D0
:101D0000531F1008531F1008531F1008531F1008AB
:101D1000471D1008944B1B6803F02003002B09D0CB
:101D2000914B1B68DB0803F00303904A22FA03F38C
:101D3000BB6111E18D4BBB610EE18D4BBB610BE1D2
:101D40008C4BBB6108E1884B9B6A03F003037B610A
:101D5000854B9B6A1B0903F03F033B61824BDB6AA7
:101D600003F00103FB60804B5B6BDB08C3F30C03E8
:101D7000FA6802FB03F307EE903AF8EE677AC7EDD4
:101D8000027A3B69002B00F0E1807B69022B00F0B6
:101D900083807B69022B00F2A1807B69002B03D03A
:101DA0007B69012B56D099E06F4B1B6803F0200331
:101DB000002B2DD06C4B1B68DB0803F003036B4A30
:101DC00022FA03F37B607B6807EE903AF8EE676ACD
:101DD0003B6907EE903AF8EE677A86EEA77A624B97
:101DE0001B6BC3F3080307EE903AF8EE676A97EDB2
:101DF000026ADFED615AC6EE257A76EEA77AF7EE33
:101E0000006A77EEA67A67EE277AC7ED077A87E051
:101E10003B6907EE903AF8EE677ADFED586A86EE96
:101E2000A77A514B1B6BC3F3080307EE903AF8EE09
:101E3000676A97ED026ADFED505AC6EE257A76EEB4
:101E4000A77AF7EE006A77EEA67A67EE277AC7EDF3
:101E5000077A65E03B6907EE903AF8EE677ADFEDC6
:101E6000486A86EEA77A404B1B6BC3F3080307EE64
:101E7000903AF8EE676A97ED026ADFED3F5AC6EED8
:101E8000257A76EEA77AF7EE006A77EEA67A67EE05
:101E9000277AC7ED077A43E03B6907EE903AF8EE00
:101EA000677ADFED386A86EEA77A2F4B1B6BC3F398
:101EB000080307EE903AF8EE676A97ED026ADFEDE5
:101EC0002E5AC6EE257A76EEA77AF7EE006A77EEFE
:101ED000A67A67EE277AC7ED077A21E03B6907EE1D
:101EE000903AF8EE677ADFED266A86EEA77A1E4B07
:101EF0001B6BC3F3080307EE903AF8EE676A97EDA1
:101F0000026ADFED1D5AC6EE257A76EEA77AF7EE65
:101F1000006A77EEA67A67EE277AC7ED077A00BFE8
:101F2000114B1B6B5B0A03F07F0301333B603B6883
:101F300007EE903AB8EE677AD7ED076AC6EE877A71
:101F4000FCEEE77A17EE903ABB6105E00023BB6137
:101F500002E0074BBB6100BFBB6918462437BD4692
:101F60005DF8047B704700BF004402580090D00326
:101F700000093D0000127A00000000460024744C65
:101F80000024744A0024F44A80B584B000AF78601D
:101F9000294BDB6803F00703062B0AD0264BDB68CE
:101FA00003F03F037A689A4201D0012340E0002306
:101FB0003EE0214BDB6823F03F021F497B6813435F
:101FC000CB60FFF747F8F86009E0FFF743F80246F7
:101FD000FB68D31AB3F57A7F01D9012328E0164BA9
:101FE0005B6803F40053B3F5005FEED17B681E2BF2
:101FF00008D07B682E2B05D07B681D2B02D07B6818
:102000002D2B14D1FFF726F8F86009E0FFF722F82E
:102010000246FB68D31AB3F57A7F01D9012307E0A2
:10202000054BDB6803F48033B3F5803FEED100232A
:1020300018461037BD4680BD0048025880B483B0B2
:1020400000AF7860064BD3F8A02005497B681343A6
:10205000C1F8A03000BF0C37BD465DF8047B704767
:1020600000440258DFF834D000F026F80C480D493F
:102070000D4A002302E0D458C4500433C4188C42E3
:10208000F9D30A4A0A4C002301E013600432A24249
:10209000FBD300F029F9FEF773F9704700800410B4
:1020A0000000001088000010C835100888000010DB
:1020B000DC000010FEE7000080B400AF0B4BD3F84B
:1020C00088300A4A43F47003C2F88830074B1B6912
:1020D000064A43F010031361044B4FF001629A600B
:1020E00000BFBD465DF8047B704700BF00ED00E017
:1020F00080B485B000AF78607B6803F00703FB60B5
:102100000C4BDB68BB60BA684FF6FF031340BB6043
:10211000FB681A02BB68134343F0BF6343F4003308
:10212000BB60044ABB68D36000BF1437BD465DF88E
:10213000047B704700ED00E080B400AF044BDB6827
:102140001B0A03F007031846BD465DF8047B704781
:1021500000ED00E080B483B000AF03463960FB803F
:10216000B7F90630002B0ADB3B68DAB20C49B7F945
:1021700006301201D2B20B4483F800230AE03B6818
:10218000DAB20849FB8803F00F03043B1201D2B214
:102190000B441A7600BF0C37BD465DF8047B7047D0
:1021A00000E100E000ED00E080B489B000AFF8602D
:1021B000B9607A60FB6803F00703FB61FB69C3F158
:1021C0000703042B28BF0423BB61FB690433062BE0
:1021D00002D9FB69033B00E000237B614FF0FF3233
:1021E000BB6902FA03F3DA43BB681A407B699A4081
:1021F0004FF0FF317B6901FA03F3D9437B680B4051
:10220000134318462437BD465DF8047B7047000031
:1022100080B582B000AF78607B68013BB3F1807F0E
:1022200001D301230FE00A4A7B68013B53600F2171
:102230004FF0FF30FFF78EFF054B00229A60044BF2
:1022400007221A60002318460837BD4680BD00BF2C
:1022500010E000E080B582B000AF78607868FFF7EA
:1022600047FF00BF0837BD4680BD80B586B000AFD0
:102270000346B9607A60FB81FFF75EFF78617A6898
:10228000B9687869FFF790FF0246B7F90E3011463A
:102290001846FFF75FFF00BF1837BD4680BD80B509
:1022A00082B000AF78607868FFF7B2FF0346184647
:1022B0000837BD4680BD80B483B000AF78607B68CE
:1022C00018460C37BD465DF8047B704780B584B076
:1022D00000AF786000F036F8F860FB681B680C33DC
:1022E0001B68F8689847F8E770B50D4D0D4C641BF6
:1022F000A4100026A64209D10B4D0C4C01F060F849
:10230000641BA4100026A64205D170BD55F8043BFD
:1023100098470136EEE755F8043B98470136F2E757
:10232000BC351008BC351008BC351008C435100881
:1023300002440346934200D1704703F8011BF9E7BA
:10234000FEE700BF80B500AF064B1B68002B05D130
:10235000054B064A0A21064800F02CF8014B1B6881
:10236000184680BDC0000010D8331008E4331008B0
:102370003034100800F003B808B500F00FF800F092
:1023800049B808B5804700F00EF80000024B186805
:10239000BFF35B8F704700BF8400001008B5FFF7E4
:1023A000F5FFFFF7EEFF08B5062000F007FC01205F
:1023B000FFF7C6FF1FB514461A46094B1B680546B2
:1023C000D8684CB1074B0091CDE9013406492B4642
:1023D00000F00EF8FFF7E7FF044B1C46F3E700BFE1
:1023E00020000010EC341008F934100827351008CC
:1023F0000EB403B5014603AB054853F8042B00683F
:10240000019300F0DFF802B05DF804EB03B0704711
:1024100020000010024B0146186800F003B800BF0E
:102420002000001037B5002944D051F8043C019039
:10243000002BA1F10404B8BFE41800F0BBFE1E4A53
:102440000198136833B96360146003B0BDE830408D
:1024500000F0B6BEA34208D9256861198B4201BFBE
:1024600019685B6849192160EDE71A465B680BB192
:10247000A342FAD911685518A5420BD1246821440A
:102480005418A3421160E0D11C685B68536021447A
:102490001160DAE702D90C230360D6E725686119D9
:1024A0008B4204BF19685B68636004BF49192160EF
:1024B0005460CAE703B030BDC8000010F8B5CD1CA9
:1024C00025F0030508350C2D38BF0C25002D0646D8
:1024D00001DBA94203D90C2333600020F8BD00F0D2
:1024E00069FE21490A6814469CB9204F3B6823B90C
:1024F0002146304600F02AFB38602946304600F07D
:1025000025FB431C23D10C233360304600F058FEDA
:10251000E3E723685B1B17D40B2B03D923601C4410
:10252000256004E06368A2420CBF0B605360304634
:1025300000F046FE04F10B00231D20F00700C21A34
:10254000CCD01B1AA350C9E722466468CCE7C41C50
:1025500024F00304A042E3D0211A304600F0F6FA3A
:102560000130DDD1CFE700BFC8000010CC00001063
:102570009368013B002B10B4936008DA9469A3427E
:1025800001DB0A2903D15DF8044B00F033BB13686B
:10259000581C1060197008465DF8044B7047F8B578
:1025A00006460F461446D518AC4201D1002007E07C
:1025B00014F8011B3A463046FFF7DAFF431CF3D10B
:1025C000F8BD00002DE9F04F0D469DB01446984629
:1025D000064618B183690BB900F0E6FC894B9D42B1
:1025E0001BD175686B6ED90705D4AB899A0502D4E7
:1025F000A86D00F077FDAB891B0701D52B69EBB9FE
:102600002946304600F048FBC0B16B6EDC070ED5A2
:102610004FF0FF301DB0BDE8F08F7B4B9D4201D1E4
:10262000B568DFE7794B9D4208BFF568DAE7AB890B
:102630009805EDD4A86D00F056FDE9E70023099355
:1026400020238DF82930CDF80C803023DFF8C081AD
:102650008DF82A304FF0010923469A4613F8012BD2
:102660000AB1252AF9D1BAEB040B0BD05B462246FE
:1026700029463046FFF793FF013000F0AA80099AFF
:102680005A4409929AF80030002B00F0A2800023EF
:102690004FF0FF32CDE905230AF1010A04930793B5
:1026A0008DF853301A935446052214F8011B5848EC
:1026B000FDF716FE049AD8B9D10644BF20238DF841
:1026C0005330130744BF2B238DF853309AF8003052
:1026D0002A2B15D0079A544600204FF00A0C2146A9
:1026E00011F8013B303B092B4ED9B0B1079214E0F1
:1026F000A0EB080309FA03F313430493A246D2E7BD
:10270000039B191D1B680391002BBBBF5B4242F06A
:10271000020207930793B8BF049223782E2B0CD1A3
:1027200063782A2B35D1039B1A1D1B680392002B5B
:10273000B8BF4FF0FF3302340593DFF8E4A02178EF
:1027400003225046FDF7CCFD40B14023A0EB0A0028
:1027500003FA00F0049B03430134049314F8011BB3
:102760002C488DF828100622FDF7BAFD00283FD02E
:10277000294B1BBB039B073323F007030833039349
:10278000099B3B44099367E70CFB02320C4601208E
:10279000A5E700230134059319464FF00A0C2046A3
:1027A00010F8012B303A092A03D9002BC5D0059126
:1027B000C3E70CFB012104460123F0E703AB0093C0
:1027C0002A46164B04A93046AFF300800746781C12
:1027D000D6D16B6ED90705D4AB899A0502D4A86D02
:1027E00000F081FCAB895B063FF512AF099811E759
:1027F00003AB00932A46094B04A9304600F080F849
:10280000E4E700BF7C3510089C3510085C351008E3
:102810002835100832351008000000009F251008E8
:102820002E3510082DE9F047164699468A680B693F
:10283000DDF820809342B8BF1346336091F84320FF
:1028400007460C460AB1013333602368990642BF3C
:10285000336802333360256815F0060506D104F1AC
:10286000190AE36832689B1AAB4226DC94F84320CD
:10287000131E226818BF012392062BD404F14302D1
:1028800049463846C04701301ED02368E5683268A3
:1028900003F00603042B08BFAD1AA36822690CBF1E
:1028A00025EAE57500259342C4BF9B1AED18002662
:1028B0001A34B5421AD1002008E001235246494695
:1028C0003846C047013003D14FF0FF30BDE8F087F4
:1028D0000135C6E7E1185A1C302081F84300224434
:1028E00094F8451082F843100233C7E701232246CB
:1028F00049463846C0470130E6D00136D9E70000E6
:102900002DE9FF470F7E0C9D782F914680460C469F
:102910009A4601F1430207D8622F0AD8002F00F02F
:10292000D880582F00F0A38004F1420584F842704B
:102930003AE0A7F16303152BF6D801A151F823F073
:1029400099291008AD2910082929100829291008EB
:102950002929100829291008AD291008292910084B
:10296000292910082929100829291008B92A10082E
:10297000DD2910089B2A1008292910082929100888
:10298000DB2A100829291008DD2910082929100838
:1029900029291008A32A10082B681A1D1B682A6011
:1029A00004F1420584F842300123A3E0206829683D
:1029B000060601F104030AD50E682B60002E03DA27
:1029C0002D23764284F843305E480A2319E00E68CE
:1029D0002B6010F0400F18BF36B2EFE72B6820686D
:1029E000191D2960010601D51E6802E04606FBD5C7
:1029F0001E8854486F2F0CBF08230A23002184F837
:102A000043106568A560002DA2BF216821F0040174
:102A100021600EB9002D4DD01546B6FBF3F103FB36
:102A20001167C75D05F8017D3746BB420E46F4D9F4
:102A3000082B0BD12368DE0708D52369616899420A
:102A4000DEBF302305F8013C05F1FF35521B226142
:102A5000CDF800A04B4603AA21464046FFF7E2FE10
:102A600001304CD14FF0FF3004B0BDE8F08735485D
:102A700081F845702968236851F8046B29601D06A8
:102A800014D5DF0744BF43F0200323601EB9236839
:102A900023F0200323601023B0E7236843F02003D2
:102AA00023607823284884F84530E3E7590648BF77
:102AB000B6B2E6E71546BBE72B6826686169181DC4
:102AC000286035061B6801D5196002E07006FBD549
:102AD0001980002323611546BAE72B681A1D2A6066
:102AE0001D68626800212846FDF7FAFB08B1401B0B
:102AF000606063682361002384F84330A8E723699A
:102B00002A4649464046D0470130ABD023689B0750
:102B100013D4E068039B9842B8BF1846A4E701238A
:102B2000324649464046D04701309BD00135E368E4
:102B300003995B1AAB42F2DCEBE7002504F11906BE
:102B4000F5E700BF393510084A35100838B5064D8D
:102B50000023044608462B6000F01CFC431C02D1F5
:102B60002B6803B1236038BDD40000101F2938B58D
:102B700004460D4604D9162303604FF0FF3038BDDC
:102B8000426C12B152F821304BB9204600F030F8B7
:102B90002A4601462046BDE8384000F017B8012B10
:102BA0000AD0591C03D1162303600120E7E7002453
:102BB00042F82540284698470020E0E7024B0146AE
:102BC0001868FFF7D3BF00BF2000001038B5074DCD
:102BD00000230446084611462B6000F0C3FB431C4B
:102BE00002D12B6803B1236038BD00BFD4000010B0
:102BF00000F0A8BBF8B50E461446054618B1836927
:102C00000BB900F0D1F9214B9C422BD16C68A36920
:102C1000A360A3891A072FD523696BB323692068A2
:102C2000C01A6369F6B28342374604DC214628465F
:102C300000F026F930BBA368013BA36023685A1C4F
:102C400022601E7063690130834204D0A389DB07D0
:102C500006D50A2E04D12146284600F011F988B97C
:102C60003846F8BD0A4B9C4201D1AC68CFE7094B0E
:102C70009C4208BFEC68CAE72146284600F00CF8E1
:102C80000028CBD04FF0FF37EAE700BF7C351008B3
:102C90009C3510085C351008324B70B51D6806462F
:102CA0000C4625B1AB6913B9284600F07DF92E4BCF
:102CB0009C420FD16C68A389B4F90C2019072CD45D
:102CC000DD0611D40923336042F04003A3814FF0A5
:102CD000FF303EE0254B9C4201D1AC68EBE7244B32
:102CE0009C4208BFEC68E6E7580712D5616B41B11A
:102CF00004F14403994202D03046FFF793FB0023CE
:102D00006363A38923F02403A38100236360236901
:102D10002360A38943F00803A38123694BB9A389E6
:102D200003F42073B3F5007F03D02146304600F052
:102D300001FAA089B4F90C2010F001030AD0002395
:102D4000A36063695B42A361236943B910F080000B
:102D5000BAD170BD810758BF6369A360F4E7002052
:102D6000F7E700BF200000107C3510089C351008E4
:102D70005C3510088A892DE9F041054610070C469C
:102D800058D44B68002B05DC0B6C002B02DC0020B8
:102D9000BDE8F081E66A002EF9D0002312F48052DB
:102DA0002F682B6032D0606DA3895A0705D5636800
:102DB000C01A636B0BB1236CC01A00230246E66A8B
:102DC000216A2846B047431CA38906D129681D29DA
:102DD0002CD82A4ACA40D60728D500226260D904D6
:102DE0002269226004D5421C01D12B6803B96065B9
:102DF000616B2F600029CAD004F14403994202D0CC
:102E00002846FFF70FFB00206063C1E7216A01231A
:102E10002846B047411CC7D12B68002BC4D01D2BBE
:102E200001D0162B01D12F60B1E7A38943F04003F5
:102E3000A381ADE70F69002FA9D093070E6808BFE3
:102E40004B690F6018BF0023A6EB07088B60B8F131
:102E5000000F9CDD216AA66A43463A462846B047E1
:102E6000002806DCA38943F04003A3814FF0FF3024
:102E70008EE70744A8EB0008E9E700BF0100402007
:102E800038B50B6905460C4613B90025284638BDF0
:102E900018B183690BB900F087F8144B9C421BD121
:102EA0006C68B4F90C30002BEFD0626ED00704D4FC
:102EB000990502D4A06D00F015F928462146FFF7C8
:102EC00059FF636EDA070546E0D4A3899B05DDD47C
:102ED000A06D00F008F9D9E7054B9C4201D1AC6820
:102EE000DFE7044B9C4208BFEC68DAE77C3510084A
:102EF0009C3510085C351008002310B50446C0E965
:102F00000033C0E90433836081814366C2818361F9
:102F1000194608225C30FFF70BFA054B6362054B3C
:102F2000A362054BE362054B2462236310BD00BF1F
:102F3000CD311008EF311008273210084B3210083D
:102F4000014900F0AFB800BF812E100870B56822AB
:102F50004D1E55430E4605F17401FFF7AFFA0446C6
:102F600040B10021C0E900160C30A06005F16802F4
:102F7000FFF7DEF9204670BD014800F0B3B800BF8E
:102F8000D1000010014800F0AEB800BFD100001021
:102F9000014800F0A7B800BFD2000010014800F0BF
:102FA000A2B800BFD200001010B50446FFF7F0FF32
:102FB000A3691BB1BDE81040FFF7F0BFC4E91233AD
:102FC0002365134B134A1B68A262A34204BF01236B
:102FD000A361204600F020F86060204600F01CF855
:102FE000A060204600F018F80022E060042160682C
:102FF000FFF782FFA06801220921FFF77DFFE0684B
:1030000002221221FFF778FF0123A361D2E700BF5C
:10301000E8341008412F1008F8B50746FFF7ACFF59
:103020001E4B1E68B36913B93046FFF7BDFF483623
:10303000D6E90134013B03D533680BB33668F7E7B3
:10304000B4F90C50D5B9164BE36004F1580065662D
:1030500000F047F8FFF796FFC4E90155C4E90455AD
:103060002560A5610822294604F15C00FFF760F99C
:10307000C4E90D55C4E912552046F8BD6834D9E7B6
:1030800004213846FFF762FF044630600028D5D19E
:10309000FFF778FF0C233B60EEE700BFE834100831
:1030A0000100FFFF2DE9F8430646884600F1480479
:1030B0000027D4E90195B9F1010905D52468002C50
:1030C000F7D13846BDE8F883AB89012B07D9B5F9AC
:1030D0000E30013303D029463046C04707436835D8
:1030E000E9E770477047704770B50E46B1F90E10AA
:1030F000002996B014461D4608DAB6F90C300022B5
:103100002A601A0610D44FF480630EE06A4600F07D
:10311000C3F80028F1DB019A02F47042A2F50053D3
:103120005A425A412A60EEE740230020236016B03D
:1031300070BD00008B8973B59D0706460C4607D508
:1031400004F14703236023610123636102B070BD72
:1031500001AB6A46FFF7C8FF009905463046FFF706
:10316000ADF948B9B4F90C309A05EFD423F0030354
:1031700043F00203A381E3E70D4BB362A389206010
:1031800043F08003A381009B6361019B20615BB1DD
:10319000B4F90E10304600F091F828B1A38923F05D
:1031A000030343F00103A381A0890543A581CDE773
:1031B000412F10080148FFF795BF00BFD000001055
:1031C0000148FFF790BF00BFD000001010B50C46BB
:1031D000B1F90E1000F094F80028ABBF636DA3891D
:1031E0001B1823F48053ACBF6365A38110BD2DE988
:1031F000F0411F468B89DB0505460C46164605D572
:10320000B1F90E100223002200F068F8A389B4F986
:103210000E1023F48053A38132463B462846BDE876
:10322000F04100F017B810B50C46B1F90E1000F0DF
:1032300055F8431CA38915BF606523F4805343F4FC
:103240008053A38118BFA38110BDB1F90E1000F007
:1032500013B8000038B5074D044608461146002251
:103260002A601A4600F0A4F8431C02D12B6803B16F
:10327000236038BDD400001038B5064D0023044645
:1032800008462B6000F04EF8431C02D12B6803B1B6
:10329000236038BDD400001038B5074D0023044624
:1032A000084611462B6000F045F8431C02D12B68FC
:1032B00003B1236038BD00BFD400001038B5064DFF
:1032C0000023044608462B6000F044F8431C02D15A
:1032D0002B6803B1236038BDD400001038B5074D0A
:1032E00004460846114600222A601A4600F042F8B9
:1032F000431C02D12B6803B1236038BDD4000010F9
:1033000038B5074D04460846114600222A601A4681
:1033100000F038F8431C02D12B6803B1236038BD9C
:10332000D4000010024B58221A604FF0FF30704753
:10333000D4000010024B58221A604FF0FF30704743
:10334000D4000010024B58221A604FF0FF30704733
:10335000D4000010024B58221A600020704700BFB2
:10336000D4000010024B58221A604FF0FF30704713
:10337000D4000010024B58221A604FF0FF30704703
:10338000D4000010024B58221A604FF0FF307047F3
:10339000D4000010044A05491368002B08BF0B46EF
:1033A0001844106018467047D8000010E000001064
:1033B000024B58221A604FF0FF307047D4000010C3
:1033C000F8B500BFF8BC08BC9E467047F8B500BF12
:0833D000F8BC08BC9E467047E2
:1033D800696E7374616E63650000000073746174D4
:1033E80069632068373A3A68617264776172653A4E
:1033F8003A636D343A3A53797374656D2A206837A5
:103408003A3A68617264776172653A3A636D343A40
:103418003A53797374656D3A3A676574496E737493
:10342800616E6365282900006C696268372F6861DE
:103438007264776172652F636D342F537973746585
:103448006D2E637070000000000000000000000096
:10345800BD041008E1041008550410088904100878
:103468000000000000000000000000000000000054
:1034780079231008792310080000000000000000DC
:10348800190710083D071008C506100800000000BD
:103498000000000000000000000000007923100870
:1034A80000000000000000006108100885081008EE
:1034B800310810084908100800000000000000004A
:1034C800000000000000000079231008792310088C
:1034D80000000000010203040102030406070809B2
:1034E800240000102C2066756E6374696F6E3A2094
:1034F80000617373657274696F6E202225732220D0
:103508006661696C65643A2066696C65202225737A
:10351800222C206C696E65202564257325730A00AA
:10352800232D302B2000686C4C00656667454647A4
:103538000030313233343536373839414243444527
:103548004600303132333435363738396162636496
:103558006566000000000000000000000000000098
:103568000000000000000000000000000000000053
:103578000000000000000000000000000000000043
:103588000000000000000000000000000000000033
:103598000000000000000000000000000000000023
:1035A8000000000000000000000000000000000013
:0435B800000000000F
:0835BC00C50210087307100896
:0435C400A102100848
:1035C80000040258001002580100020000000430F4
:1035D80010000000010000000090D0030090D0030C
:1035E80024000010000000007C3510089C351008ED
:1035F8005C3510080000000000000000000000001A
:1036080000000000000000000000000000000000B2
:1036180000000000000000000000000000000000A2
:103628000000000000000000000000000000000092
:103638000000000000000000000000000000000082
:0836480000000000A723100898
:04000005081020655A
:00000001FF
