:020000040810E2
:100000000080041001141008F5081008FB081008FF
:1000100001091008070910080D0910080000000068
:10002000000000000000000000000000130910089C
:1000300021091008000000002F0910083D091008D0
:1000400051141008511410085114100851141008BC
:1000500051141008511410085114100851141008AC
:10006000511410085114100851141008511410089C
:10007000511410085114100851141008511410088C
:10008000511410085114100851141008511410087C
:10009000511410085114100851141008511410086C
:1000A000511410085114100851141008511410085C
:1000B000511410085114100851141008511410084C
:1000C000511410085114100851141008511410083C
:1000D000511410085114100851141008511410082C
:1000E0005114100851141008000000005114100899
:1000F000511410085114100851141008511410080C
:1001000051141008511410085114100851141008FB
:1001100051141008511410085114100851141008EB
:1001200051141008511410085114100851141008DB
:1001300051141008511410085114100851141008CB
:1001400049091008511410080000000000000000C8
:1001500051141008511410085114100851141008AB
:10016000511410085114100851141008511410089B
:10017000511410085114100851141008511410088B
:10018000511410085114100851141008511410087B
:10019000511410085114100851141008511410086B
:1001A000511410085114100851141008511410085B
:1001B000511410085114100851141008511410084B
:1001C000511410085114100851141008511410083B
:1001D000511410085114100851141008511410082B
:1001E000511410085114100851141008511410081B
:1001F000511410085114100851141008511410080B
:1002000051141008511410085114100851141008FA
:1002100051141008511410085114100851141008EA
:100220005114100851141008511410080000000057
:1002300051141008511410085114100851141008CA
:1002400051141008511410085114100851141008BA
:1002500051141008511410085114100851141008AA
:10026000511410085114100851141008511410089A
:10027000511410085114100851141008511410088A
:1002800051141008511410085114100800000000F7
:0802900051141008511410086C
:1002A00010B5054C237833B9044B13B10448AFF3B0
:1002B00000800123237010BD90000010000000009A
:1002C000EC27100808B5034B1BB103490348AFF3F3
:1002D000008008BD0000000094000010EC2710080A
:1002E00001F0FF01102A2BDB10F0070F08D010F8E7
:1002F000013B013A8B422DD010F0070F42B3F6D1EB
:10030000F0B441EA012141EA014122F007047FF003
:1003100000070023F0E80256083C85EA010586EA5A
:10032000010685FA47F5A3FA87F586FA47F6A5FA96
:1003300087F68EB9EED1F0BC01F0FF0102F00702A2
:1003400032B110F8013B013A83EA010313B1F8D14D
:100350000020704701387047002D06BF354603382E
:10036000073815F0010F07D1013015F4807F02BF67
:10037000013015F4C03F0130F0BC0138704700BFB8
:1003800080B586B000AF7860396000F0FBF907F106
:100390001003184600F046F807F10C03184600F069
:1003A00063FA07F10803184600F068F907F114032F
:1003B000184601F063F907F11403184601F069F9D2
:1003C000FEE7000080B483B000AF7860044A7B6829
:1003D0001A607B6818460C37BD465DF8047B704791
:1003E0002029100880B582B000AF78607868FFF7E8
:1003F000E9FF0421786801F0D3F97B6818460837D3
:10040000BD4680BD80B483B000AF7860044A7B688D
:100410001A607B6818460C37BD465DF8047B704750
:100420002029100880B582B000AF78607B6818463C
:10043000FFF7E8FF054A7B681A607B68044A13608F
:100440007B6818460837BD4680BD00BF08291008E4
:10045000CC00001080B582B000AF78603960084AE7
:100460003B6852F82300074A3B6832F813300122F8
:10047000194600F0B7FC00BF0837BD4680BD00BF7D
:10048000000000100C00001080B582B000AF786052
:100490003960084A3B6852F82300074A3B6832F843
:1004A00013300022194600F09DFC00BF0837BD46FE
:1004B00080BD00BF000000100C00001080B582B0AD
:1004C00000AF7860054A7B681A607B681846FFF7C2
:1004D00079FF7B6818460837BD4680BD082910089B
:1004E00080B582B000AF78607868FFF7E7FF04213D
:1004F000786801F055F97B6818460837BD4680BD1D
:1005000080B483B000AF7860044A7B681A607B686F
:1005100018460C37BD465DF8047B70474C2910081F
:1005200080B582B000AF78607868FFF7E9FF0421FA
:10053000786801F035F97B6818460837BD4680BDFC
:1005400080B483B000AF03463960FB713B685AB298
:1005500097F9073013405BB2DBB218460C37BD4643
:100560005DF8047B704780B485B000AF78600B46BF
:10057000FB707B68FB60FB78FB72FB680122114615
:10058000BFF35B8FD3E84F2FC3E8401F0028F9D19A
:10059000BFF35B8FD3B200BF18461437BD465DF87A
:1005A000047B704780B584B000AF78600B46FB7069
:1005B0007B68FB60FB78FB72FB7A4FF6FF71184695
:1005C000FFF7BEFF0346BB72FB68BFF35B8F0022E1
:1005D0001A70BFF35B8F00BF00BF1037BD4680BDF0
:1005E00080B582B000AF786005217868FFF7BBFF67
:1005F000034618460837BD4680BD80B582B000AFBF
:10060000786005217868FFF7CDFF00BF0837BD4649
:1006100080BD000080B500AF0C48FFF7E1FF034646
:10062000002B11D10A4B1B681B681A46094B1A6034
:10063000074B1B681A79074B1A71074B01221A7076
:100640000248FFF7DAFF00E000BF80BDAC000010F9
:1006500014000010B0000010B800001080B483B087
:1006600000AF7860044A7B681A607B6818460C37D4
:10067000BD465DF8047B70474C29100880B582B0F8
:1006800000AF78607B681846FFF7E8FF084A7B6890
:100690001A607B68074A1360074B084A1A600848CB
:1006A000FFF7ABFF7B6818460837BD4680BD00BF2B
:1006B00038291008C4000010BC00001015061008EE
:1006C000AC00001080B584B000AF78600F48FFF731
:1006D00087FF0346012B0CBF01230023DBB2002B55
:1006E00000D0F3E70023FB60094B1B78002B04D0FC
:1006F000084BFB60064B00221A700448FFF77DFF91
:10070000FB6818461037BD4680BD00BFAC00001026
:10071000B8000010B000001080B582B000AF786063
:10072000054A7B681A607B681846FFF7E9FE7B681C
:1007300018460837BD4680BD3829100880B582B0FC
:1007400000AF78607868FFF7E7FF0421786801F070
:1007500027F87B6818460837BD4680BD80B483B053
:1007600000AF7860396000BF0C37BD465DF8047B90
:10077000704780B500AF4FF6FF710120FFF7EEFF25
:1007800080BD000080B582B000AF1C4BD3F8E030D4
:100790001A4A43F00073C2F8E030184BD3F8E03047
:1007A00003F000737B607B68012000F035FB00F0F4
:1007B00019FE01220221002000F09AFD104B1B6857
:1007C0001B0903F00F03072B08D10E4BD3F804319C
:1007D0000C4A43F00103C2F8043107E0094BD3F897
:1007E0001431084A43F00103C2F8143100F026FB2B
:1007F00000F0BAF800BF0837BD4680BD004402587B
:1008000000ED00E00064025880B483B000AF78606F
:10081000044A7B681A607B6818460C37BD465DF851
:10082000047B70477429100880B582B000AF7860EF
:100830007868FFF7E9FF0421786800F0B1FF7B6872
:1008400018460837BD4680BD80B483B000AF7860DD
:10085000044A7B681A607B6818460C37BD465DF811
:10086000047B70477429100880B582B000AF7860AF
:100870007B681846FFF7E8FF054A7B681A607B68CB
:10088000044A13607B6818460837BD4680BD00BF28
:1008900060291008C800001080B582B000AF7860F1
:1008A0003960386800F086FB00BF0837BD4680BD60
:1008B00080B582B000AF7860054A7B681A607B68BB
:1008C0001846FFF7A1FF7B6818460837BD4680BD74
:1008D0006029100880B582B000AF78607868FFF7B3
:1008E000E7FF0421786800F05BFF7B681846083753
:1008F000BD4680BD80B400AFFEE780B400AFFEE728
:1009000080B400AFFEE780B400AFFEE780B400AF74
:10091000FEE780B400AF00BFBD465DF8047B7047C2
:1009200080B400AF00BFBD465DF8047B704780B463
:1009300000AF00BFBD465DF8047B704780B500AFD7
:1009400000F018FB00BF80BD80B500AF054B1B68F1
:10095000002B03D0034B1B68984701E000F08CF894
:1009600000BF80BDBC00001080B58AB000AF07F1A9
:10097000140300221A605A609A60DA601A613A4BD6
:10098000D3F8E030384A43F00403C2F8E030364B85
:10099000D3F8E03003F004033B613B69324BD3F8FA
:1009A000E030314A43F00203C2F8E0302E4BD3F876
:1009B000E03003F00203FB60FB682B4BD3F8E03020
:1009C000294A43F00803C2F8E030274BD3F8E0305F
:1009D00003F00803BB60BB68234BD3F8E030224A26
:1009E00043F01003C2F8E0301F4BD3F8E03003F0BF
:1009F00010037B607B68002244F201011B4800F079
:100A0000F1F9002202211A4800F0ECF94FF40053EA
:100A10007B610023BB610023FB6107F114031946CE
:100A2000144800F02FF844F201037B610123BB61FD
:100A30000023FB6100233B6207F1140319460B48B6
:100A400000F020F802237B610123BB610023FB61DE
:100A500000233B6207F114031946054800F012F821
:100A600000BF2837BD4680BD00440258000402582C
:100A7000001002580008025880B400AF72B600BFE0
:100A8000FEE7000080B489B000AF786039600023D1
:100A9000FB61894B7B6194E13B681A680121FB692A
:100AA00001FA03F313403B613B69002B00F08681A0
:100AB0003B685B6803F00303012B05D03B685B6870
:100AC00003F00303022B30D17B689B68BB61FB6999
:100AD0005B00032202FA03F3DB43BA691340BB61F4
:100AE0003B68DA68FB695B0002FA03F3BA691343F7
:100AF000BB617B68BA699A607B685B68BB610122F5
:100B0000FB6902FA03F3DB43BA691340BB613B683C
:100B10005B681B0903F00102FB6902FA03F3BA697F
:100B20001343BB617B68BA695A603B685B6803F03A
:100B30000303032B17D07B68DB68BB61FB695B0099
:100B4000032202FA03F3DB43BA691340BB613B683B
:100B50009A68FB695B0002FA03F3BA691343BB614D
:100B60007B68BA69DA603B685B6803F00303022BB9
:100B700023D1FB69DA087B68083253F82230BB6165
:100B8000FB6903F007039B000F2202FA03F3DB4328
:100B9000BA691340BB613B681A69FB6903F007033C
:100BA0009B0002FA03F3BA691343BB61FB69DA08DD
:100BB0007B680832B96943F822107B681B68BB6107
:100BC000FB695B00032202FA03F3DB43BA691340BB
:100BD000BB613B685B6803F00302FB695B0002FAE0
:100BE00003F3BA691343BB617B68BA691A603B6857
:100BF0005B6803F44033002B00F0E0802F4BD3F808
:100C0000F4302E4A43F00203C2F8F4302B4BD3F8F1
:100C1000F43003F00203FB60FB68294AFB699B0880
:100C2000023352F82330BB61FB6903F003039B00DE
:100C30000F2202FA03F3DB43BA691340BB617B68FE
:100C4000204A934252D07B681F4A934231D07B683E
:100C50001E4A93422BD07B681D4A934225D07B6865
:100C60001C4A93421FD07B681B4A934219D07B6871
:100C70001A4A934213D07B68194A93420DD07B687D
:100C8000184A934207D07B68174A934201D109233F
:100C90002DE00A232BE0082329E0072327E0062381
:100CA00025E0052323E0042321E003231FE00223A2
:100CB0001DE001231BE000BFC000005800440258A3
:100CC00000040058000002580004025800080258AE
:100CD000000C025800100258001402580018025864
:100CE000001C025800200258002402580023FA6910
:100CF00002F0030292009340BA691343BB61384982
:100D0000FB699B080233BA6941F823204FF0B043D6
:100D10001B68BB613B69DB43BA691340BB613B683D
:100D20005B6803F48013002B03D0BA693B6913435B
:100D3000BB614FF0B042BB6913604FF0B0435B68DA
:100D4000BB613B69DB43BA691340BB613B685B68CD
:100D500003F40013002B03D0BA693B691343BB6152
:100D60004FF0B042BB6953607B695B68BB613B6914
:100D7000DB43BA691340BB613B685B6803F4003333
:100D8000002B03D0BA693B691343BB617B69BA6925
:100D90005A607B691B68BB613B69DB43BA691340DE
:100DA000BB613B685B6803F48033002B03D0BA69F6
:100DB0003B691343BB617B69BA691A60FB69013304
:100DC000FB613B681A68FB6922FA03F3002B7FF48E
:100DD00063AE00BF00BF2437BD465DF8047B70479B
:100DE0000004005880B483B000AF78600B467B806D
:100DF00013467B707B78002B03D07A887B689A61DE
:100E000003E07B881A047B689A6100BF0C37BD46FB
:100E10005DF8047B7047000080B483B000AF786059
:100E2000054B1A6804497B6813430B6000BF0C37FD
:100E3000BD465DF8047B70471065025880B582B0EE
:100E400000AF284BD3F8D830264A43F48043C2F889
:100E5000D830244BD3F8D83003F480433B603B6850
:100E6000214B1B6823F47F2323F470631E4A43F451
:100E7000014313601C4B1B681B4A43F001031360C2
:100E8000032000F0B5FB00F0B9F80246154B9B6952
:100E90001B0A03F00F031549CB5C03F01F0322FA72
:100EA00003F37B600F4B9B6903F00F030F4AD35C86
:100EB00003F01F037A6822FA03F30D4A13600C4B08
:100EC0001B680C4A13600F2000F01EF80346002B2D
:100ED00001D0012302E000F00FF800231846083784
:100EE000BD4680BD004402580044024080291008DD
:100EF000240000102000001080B400AF00BFBD46E9
:100F00005DF8047B7047000080B582B000AF786068
:100F1000154B1B78002B01D1012321E0134B1A68DC
:100F2000114B1B7819464FF47A73B3FBF1F3B2FB04
:100F3000F3F3184600F081FB0346002B01D0012398
:100F40000EE07B680F2B0AD8002279684FF0FF3043
:100F500000F059FB064A7B681360002300E0012380
:100F600018460837BD4680BD1C0000102000001048
:100F70001800001080B400AF064B1B781A46064BD1
:100F80001B681344044A136000BFBD465DF8047B30
:100F9000704700BF1C000010C000001080B400AFFC
:100FA000034B1B681846BD465DF8047B704700BFC5
:100FB000C000001080B584B000AF7860FFF7EEFF8E
:100FC000B8607B68FB60FB68B3F1FF3F05D00A4B5C
:100FD0001B781A46FB681344FB6000BFFFF7DEFF77
:100FE0000246BB68D31AFA689A42F7D800BF00BF1E
:100FF0001037BD4680BD00BF1C00001080B489B012
:1010000000AFB34B1B6903F03803182B00F2558176
:1010100001A252F823F000BF7D101008BB12100887
:10102000BB121008BB121008BB121008BB1210082C
:10103000BB121008BB121008A3101008BB12100836
:10104000BB121008BB121008BB121008BB1210080C
:10105000BB121008BB121008A9101008BB12100810
:10106000BB121008BB121008BB121008BB121008EC
:10107000BB121008BB121008AF101008944B1B686D
:1010800003F02003002B09D0914B1B68DB0803F011
:101090000303904A22FA03F3BB6111E18D4BBB615C
:1010A0000EE18D4BBB610BE18C4BBB6108E1884BC2
:1010B0009B6A03F003037B61854B9B6A1B0903F06A
:1010C0003F033B61824BDB6A03F00103FB60804B13
:1010D0005B6BDB08C3F30C03FA6802FB03F307EE58
:1010E000903AF8EE677AC7ED027A3B69002B00F080
:1010F000E1807B69022B00F083807B69022B00F288
:10110000A1807B69002B03D07B69012B56D099E02D
:101110006F4B1B6803F02003002B2DD06C4B1B681A
:10112000DB0803F003036B4A22FA03F37B607B685E
:1011300007EE903AF8EE676A3B6907EE903AF8EEF0
:10114000677A86EEA77A624B1B6BC3F3080307EE40
:10115000903AF8EE676A97ED026ADFED615AC6EEE3
:10116000257A76EEA77AF7EE006A77EEA67A67EE32
:10117000277AC7ED077A87E03B6907EE903AF8EEE9
:10118000677ADFED586A86EEA77A514B1B6BC3F383
:10119000080307EE903AF8EE676A97ED026ADFED12
:1011A000505AC6EE257A76EEA77AF7EE006A77EE09
:1011B000A67A67EE277AC7ED077A65E03B6907EE06
:1011C000903AF8EE677ADFED486A86EEA77A404BF0
:1011D0001B6BC3F3080307EE903AF8EE676A97EDCE
:1011E000026ADFED3F5AC6EE257A76EEA77AF7EE71
:1011F000006A77EEA67A67EE277AC7ED077A43E0B2
:101200003B6907EE903AF8EE677ADFED386A86EED2
:10121000A77A2F4B1B6BC3F3080307EE903AF8EE47
:10122000676A97ED026ADFED2E5AC6EE257A76EEF2
:10123000A77AF7EE006A77EEA67A67EE277AC7ED0F
:10124000077A21E03B6907EE903AF8EE677ADFED26
:10125000266A86EEA77A1E4B1B6BC3F3080307EEC4
:10126000903AF8EE676A97ED026ADFED1D5AC6EE16
:10127000257A76EEA77AF7EE006A77EEA67A67EE21
:10128000277AC7ED077A00BF114B1B6B5B0A03F08F
:101290007F0301333B603B6807EE903AB8EE677A14
:1012A000D7ED076AC6EE877AFCEEE77A17EE903A3A
:1012B000BB6105E00023BB6102E0074BBB6100BFDF
:1012C000BB6918462437BD465DF8047B704700BFF4
:1012D000004402580090D00300093D0000127A003B
:1012E000000000460024744C0024744A0024F44A90
:1012F00080B584B000AFF8600B467A60FB72374B64
:101300001B6823F001023549FB6813430B607B68BF
:10131000002B23D100F09EF90346032B58D12F4B0D
:101320001B692E4A23F0010313612D4B1B692C4AC4
:1013300043F004031361BFF34F8F00BFBFF36F8F00
:1013400000BFFB7A012B01D130BF00E020BF244B4E
:101350001B69234A23F0040313613CE07B68012BE3
:1013600023D100F077F90346012B33D11B4B5B6986
:101370001A4A23F002035361194B1B69184A43F0C0
:1013800004031361BFF34F8F00BFBFF36F8F00BF24
:10139000FB7A012B01D130BF00E020BF104B1B694D
:1013A0000F4A23F00403136115E000F053F90346DC
:1013B000032B06D1094B1B69084A23F00403136170
:1013C00009E0064B5B69054A23F00403536102E020
:1013D00000BF00E000BF1037BD4680BD0048025886
:1013E00000ED00E080B500AF00F034F90346032BB8
:1013F00001D120BF01E040BF20BF00BF80BD000081
:10140000DFF834D000F026F80C480D490D4A0023CF
:1014100002E0D458C4500433C4188C42F9D30A4AA9
:101420000A4C002301E013600432A242FBD300F017
:1014300059F9FEF7A5FF7047008004100000001066
:1014400090000010702A100890000010E4000010B6
:10145000FEE7000080B400AF0B4BD3F888300A4A97
:1014600043F47003C2F88830074B1B69064A43F007
:1014700010031361044B4FF001629A6000BFBD4638
:101480005DF8047B704700BF00ED00E080B485B0DC
:1014900000AF78607B6803F00703FB600C4BDB68F0
:1014A000BB60BA684FF6FF031340BB60FB681A02CB
:1014B000BB68134343F0BF6343F40033BB60044A8B
:1014C000BB68D36000BF1437BD465DF8047B70472E
:1014D00000ED00E080B400AF044BDB681B0A03F0B2
:1014E00007031846BD465DF8047B704700ED00E039
:1014F00080B483B000AF03463960FB80B7F9063093
:10150000002B0ADB3B68DAB20C49B7F9063012014E
:10151000D2B20B4483F800230AE03B68DAB20849F0
:10152000FB8803F00F03043B1201D2B20B441A767E
:1015300000BF0C37BD465DF8047B704700E100E05A
:1015400000ED00E080B489B000AFF860B9607A6067
:10155000FB6803F00703FB61FB69C3F10703042B7E
:1015600028BF0423BB61FB690433062B02D9FB6946
:10157000033B00E000237B614FF0FF32BB6902FABE
:1015800003F3DA43BB681A407B699A404FF0FF319E
:101590007B6901FA03F3D9437B680B401343184678
:1015A0002437BD465DF8047B7047000080B582B0EB
:1015B00000AF78607B68013BB3F1807F01D30123EA
:1015C0000FE00A4A7B68013B53600F214FF0FF3068
:1015D000FFF78EFF054B00229A60044B07221A602A
:1015E000002318460837BD4680BD00BF10E000E06C
:1015F00080B582B000AF78607868FFF747FF00BF22
:101600000837BD4680BD80B586B000AF0346B960DF
:101610007A60FB81FFF75EFF78617A68B968786964
:10162000FFF790FF0246B7F90E3011461846FFF754
:101630005FFF00BF1837BD4680BD80B582B000AFE8
:1016400078607868FFF7B2FF034618460837BD4652
:1016500080BD000080B400AF074B1B681B0903F07E
:101660000F03072B01D1032300E001231846BD46D9
:101670005DF8047B704700BF00ED00E080B483B0EC
:1016800000AF78607B6818460C37BD465DF8047B78
:10169000704780B586B000AF786000F051F878618F
:1016A00000F066F838617B691B6808331B6878694D
:1016B0009847F860F968786800F008F83B691B689B
:1016C00008331B68012138699847ECE780B483B080
:1016D00000AF786039603B68002B0C37BD465DF881
:1016E000047B704770B50D4D0D4C641BA410002693
:1016F000A64209D10B4D0C4C01F078F8641BA410E4
:101700000026A64205D170BD55F8043B9847013626
:10171000EEE755F8043B98470136F2E7642A1008D3
:10172000642A1008642A10086C2A10080244034630
:10173000934200D1704703F8011BF9E7FEE700BFB1
:1017400080B500AF064B1B68002B05D1054B064A40
:101750000A21064800F044F8014B1B68184680BD7A
:10176000C40000100428100810281008642810086D
:1017700080B500AF064B1B68002B05D1054B064A10
:101780000A21064800F02CF8014B1B68184680BD62
:10179000C80000108828100894281008E0281008B5
:1017A00000F003B808B500F00FF800F049B808B52C
:1017B000804700F00EF80000024B1868BFF35B8F03
:1017C000704700BF8C00001008B5FFF7F5FFFFF76A
:1017D000EEFF08B5062000F007FC0120FFF7AEFF82
:1017E0001FB514461A46094B1B680546D8684CB10C
:1017F000074B0091CDE9013406492B4600F00EF865
:10180000FFF7E7FF044B1C46F3E700BF280000107A
:1018100094291008A1291008CF2910080EB403B587
:10182000014603AB054853F8042B0068019300F010
:10183000DFF802B05DF804EB03B070472800001039
:10184000024B0146186800F003B800BF28000010E2
:1018500037B5002944D051F8043C0190002BA1F188
:101860000404B8BFE41800F0BBFE1E4A01981368D8
:1018700033B96360146003B0BDE8304000F0B6BE19
:10188000A34208D9256861198B4201BF19685B68BA
:1018900049192160EDE71A465B680BB1A342FAD9FA
:1018A00011685518A5420BD1246821445418A3424D
:1018B0001160E0D11C685B68536021441160DAE775
:1018C00002D90C230360D6E7256861198B4204BF57
:1018D00019685B68636004BF491921605460CAE7F6
:1018E00003B030BDD0000010F8B5CD1C25F00305C5
:1018F00008350C2D38BF0C25002D064601DBA9420A
:1019000003D90C2333600020F8BD00F069FE2149A3
:101910000A6814469CB9204F3B6823B921463046DB
:1019200000F02AFB38602946304600F025FB431CB6
:1019300023D10C233360304600F058FEE3E72368E0
:101940005B1B17D40B2B03D923601C44256004E0D8
:101950006368A2420CBF0B605360304600F046FE45
:1019600004F10B00231D20F00700C21ACCD01B1A73
:10197000A350C9E722466468CCE7C41C24F00304E2
:10198000A042E3D0211A304600F0F6FA0130DDD152
:10199000CFE700BFD0000010D40000109368013BD7
:1019A000002B10B4936008DA9469A34201DB0A2982
:1019B00003D15DF8044B00F033BB1368581C106072
:1019C000197008465DF8044B7047F8B506460F4697
:1019D0001446D518AC4201D1002007E014F8011BD1
:1019E0003A463046FFF7DAFF431CF3D1F8BD00005A
:1019F0002DE9F04F0D469DB014469846064618B1A5
:101A000083690BB900F0E6FC894B9D421BD17568D8
:101A10006B6ED90705D4AB899A0502D4A86D00F086
:101A200077FDAB891B0701D52B69EBB929463046F9
:101A300000F048FBC0B16B6EDC070ED54FF0FF30F5
:101A40001DB0BDE8F08F7B4B9D4201D1B568DFE74B
:101A5000794B9D4208BFF568DAE7AB899805EDD46C
:101A6000A86D00F056FDE9E70023099320238DF8C7
:101A70002930CDF80C803023DFF8C0818DF82A3072
:101A80004FF0010923469A4613F8012B0AB1252A83
:101A9000F9D1BAEB040B0BD05B46224629463046FF
:101AA000FFF793FF013000F0AA80099A5A44099287
:101AB0009AF80030002B00F0A28000234FF0FF3294
:101AC000CDE905230AF1010A049307938DF85330F9
:101AD0001A935446052214F8011B5848FEF700FCDF
:101AE000049AD8B9D10644BF20238DF85330130788
:101AF00044BF2B238DF853309AF800302A2B15D091
:101B0000079A544600204FF00A0C214611F8013B79
:101B1000303B092B4ED9B0B1079214E0A0EB08037B
:101B200009FA03F313430493A246D2E7039B191D5A
:101B30001B680391002BBBBF5B4242F0020207937C
:101B40000793B8BF049223782E2B0CD163782A2BED
:101B500035D1039B1A1D1B680392002BB8BF4FF0B1
:101B6000FF3302340593DFF8E4A0217803225046C6
:101B7000FEF7B6FB40B14023A0EB0A0003FA00F0E9
:101B8000049B03430134049314F8011B2C488DF883
:101B900028100622FEF7A4FB00283FD0294B1BBBD0
:101BA000039B073323F0070308330393099B3B444C
:101BB000099367E70CFB02320C460120A5E70023DE
:101BC0000134059319464FF00A0C204610F8012BFA
:101BD000303A092A03D9002BC5D00591C3E70CFB85
:101BE000012104460123F0E703AB00932A46164B7C
:101BF00004A93046AFF300800746781CD6D16B6E3F
:101C0000D90705D4AB899A0502D4A86D00F081FCF0
:101C1000AB895B063FF512AF099811E703AB009360
:101C20002A46094B04A9304600F080F8E4E700BFDB
:101C3000242A1008442A1008042A1008D029100861
:101C4000DA29100800000000CB191008D629100866
:101C50002DE9F047164699468A680B69DDF8208021
:101C60009342B8BF1346336091F8432007460C46B1
:101C70000AB1013333602368990642BF33680233E7
:101C80003360256815F0060506D104F1190AE368EA
:101C900032689B1AAB4226DC94F84320131E22685C
:101CA00018BF012392062BD404F14302494638465B
:101CB000C04701301ED02368E568326803F0060390
:101CC000042B08BFAD1AA36822690CBF25EAE5758D
:101CD00000259342C4BF9B1AED1800261A34B54262
:101CE0001AD1002008E00123524649463846C04731
:101CF000013003D14FF0FF30BDE8F0870135C6E772
:101D0000E1185A1C302081F84300224494F8451011
:101D100082F843100233C7E701232246494638467A
:101D2000C0470130E6D00136D9E700002DE9FF4772
:101D30000F7E0C9D782F914680460C469A4601F105
:101D4000430207D8622F0AD8002F00F0D880582FFE
:101D500000F0A38004F1420584F842703AE0A7F154
:101D60006303152BF6D801A151F823F0C51D100807
:101D7000D91D1008551D1008551D1008551D1008B7
:101D8000551D1008D91D1008551D1008551D1008A7
:101D9000551D1008551D1008E51E1008091E1008D5
:101DA000C71E1008551D1008551D1008071F1008E4
:101DB000551D1008091E1008551D1008551D100846
:101DC000CF1E10082B681A1D1B682A6004F14205FB
:101DD00084F842300123A3E020682968060601F157
:101DE00004030AD50E682B60002E03DA2D237642F9
:101DF00084F843305E480A2319E00E682B6010F027
:101E0000400F18BF36B2EFE72B682068191D296014
:101E1000010601D51E6802E04606FBD51E8854481F
:101E20006F2F0CBF08230A23002184F84310656834
:101E3000A560002DA2BF216821F0040121600EB928
:101E4000002D4DD01546B6FBF3F103FB1167C75DBE
:101E500005F8017D3746BB420E46F4D9082B0BD15D
:101E60002368DE0708D5236961689942DEBF302305
:101E700005F8013C05F1FF35521B2261CDF800A0A9
:101E80004B4603AA21464046FFF7E2FE01304CD103
:101E90004FF0FF3004B0BDE8F087354881F8457059
:101EA0002968236851F8046B29601D0614D5DF07E3
:101EB00044BF43F0200323601EB9236823F02003AE
:101EC00023601023B0E7236843F0200323607823C6
:101ED000284884F84530E3E7590648BFB6B2E6E73C
:101EE0001546BBE72B6826686169181D2860350612
:101EF0001B6801D5196002E07006FBD5198000232C
:101F000023611546BAE72B681A1D2A601D686268AE
:101F100000212846FEF7E4F908B1401B60606368C1
:101F20002361002384F84330A8E723692A46494601
:101F30004046D0470130ABD023689B0713D4E068FC
:101F4000039B9842B8BF1846A4E70123324649468E
:101F50004046D04701309BD00135E36803995B1AB6
:101F6000AB42F2DCEBE7002504F11906F5E700BF10
:101F7000E1291008F229100838B5064D002304465F
:101F800008462B6000F01CFC431C02D12B6803B1F7
:101F9000236038BDDC0000101F2938B504460D460B
:101FA00004D9162303604FF0FF3038BD426C12B1E4
:101FB00052F821304BB9204600F030F82A4601464D
:101FC0002046BDE8384000F017B8012B0AD0591C54
:101FD00003D1162303600120E7E7002442F82540DF
:101FE000284698470020E0E7024B01461868FFF7B3
:101FF000D3BF00BF2800001038B5074D00230446AA
:10200000084611462B6000F0C3FB431C02D12B682D
:1020100003B1236038BD00BFDC00001000F0A8BB96
:10202000F8B50E461446054618B183690BB900F0A1
:10203000D1F9214B9C422BD16C68A369A360A38981
:102040001A072FD523696BB323692068C01A636907
:10205000F6B28342374604DC2146284600F026F9D2
:1020600030BBA368013BA36023685A1C22601E702A
:1020700063690130834204D0A389DB0706D50A2EA9
:1020800004D12146284600F011F988B93846F8BD38
:102090000A4B9C4201D1AC68CFE7094B9C4208BF78
:1020A000EC68CAE72146284600F00CF80028CBD09F
:1020B0004FF0FF37EAE700BF242A1008442A10082F
:1020C000042A1008324B70B51D6806460C4625B12F
:1020D000AB6913B9284600F07DF92E4B9C420FD115
:1020E0006C68A389B4F90C2019072CD4DD0611D42F
:1020F0000923336042F04003A3814FF0FF303EE0FC
:10210000254B9C4201D1AC68EBE7244B9C4208BFB5
:10211000EC68E6E7580712D5616B41B104F144035E
:10212000994202D03046FFF793FB00236363A389F3
:1021300023F02403A3810023636023692360A38920
:1021400043F00803A38123694BB9A38903F42073E7
:10215000B3F5007F03D02146304600F001FAA08994
:10216000B4F90C2010F001030AD00023A3606369C6
:102170005B42A361236943B910F08000BAD170BDFE
:10218000810758BF6369A360F4E70020F7E700BF49
:1021900028000010242A1008442A1008042A1008D5
:1021A0008A892DE9F041054610070C4658D44B6842
:1021B000002B05DC0B6C002B02DC0020BDE8F0815D
:1021C000E66A002EF9D0002312F480522F682B60AB
:1021D00032D0606DA3895A0705D56368C01A636B56
:1021E0000BB1236CC01A00230246E66A216A284616
:1021F000B047431CA38906D129681D292CD82A4A37
:10220000CA40D60728D500226260D904226922601C
:1022100004D5421C01D12B6803B96065616B2F6046
:102220000029CAD004F14403994202D02846FFF79E
:102230000FFB00206063C1E7216A01232846B047F5
:10224000411CC7D12B68002BC4D01D2B01D0162BED
:1022500001D12F60B1E7A38943F04003A381ADE72B
:102260000F69002FA9D093070E6808BF4B690F6054
:1022700018BF0023A6EB07088B60B8F1000F9CDDA8
:10228000216AA66A43463A462846B047002806DC3B
:10229000A38943F04003A3814FF0FF308EE707444A
:1022A000A8EB0008E9E700BF0100402038B50B6942
:1022B00005460C4613B90025284638BD18B1836978
:1022C0000BB900F087F8144B9C421BD16C68B4F931
:1022D0000C30002BEFD0626ED00704D4990502D4E5
:1022E000A06D00F015F928462146FFF759FF636EEF
:1022F000DA070546E0D4A3899B05DDD4A06D00F084
:1023000008F9D9E7054B9C4201D1AC68DFE7044BE3
:102310009C4208BFEC68DAE7242A1008442A100817
:10232000042A1008002310B50446C0E90033C0E9B0
:102330000433836081814366C28183611946082228
:102340005C30FFF7F3F9054B6362054BA362054B65
:10235000E362054B2462236310BD00BFF92510081A
:102360001B2610085326100877261008014900F094
:10237000AFB800BFAD22100870B568224D1E55439E
:102380000E4605F17401FFF7AFFA044640B1002193
:10239000C0E900160C30A06005F16802FFF7C6F92D
:1023A000204670BD014800F0B3B800BFD90000104E
:1023B000014800F0AEB800BFD9000010014800F09D
:1023C000A7B800BFDA000010014800F0A2B800BFB3
:1023D000DA00001010B50446FFF7F0FFA3691BB147
:1023E000BDE81040FFF7F0BFC4E912332365134B7B
:1023F000134A1B68A262A34204BF0123A3612046C3
:1024000000F020F86060204600F01CF8A060204634
:1024100000F018F80022E06004216068FFF782FFF6
:10242000A06801220921FFF77DFFE0680222122146
:10243000FFF778FF0123A361D2E700BF90291008BE
:102440006D231008F8B50746FFF7ACFF1E4B1E685A
:10245000B36913B93046FFF7BDFF4836D6E90134FA
:10246000013B03D533680BB33668F7E7B4F90C507A
:10247000D5B9164BE36004F15800656600F047F8E3
:10248000FFF796FFC4E90155C4E904552560A5612D
:102490000822294604F15C00FFF748F9C4E90D550C
:1024A000C4E912552046F8BD6834D9E704213846FE
:1024B000FFF762FF044630600028D5D1FFF778FFB0
:1024C0000C233B60EEE700BF902910080100FFFFDE
:1024D0002DE9F8430646884600F148040027D4E970
:1024E0000195B9F1010905D52468002CF7D13846CA
:1024F000BDE8F883AB89012B07D9B5F90E3001335C
:1025000003D029463046C04707436835E9E770479E
:102510007047704770B50E46B1F90E10002996B09D
:1025200014461D4608DAB6F90C3000222A601A0655
:1025300010D44FF480630EE06A4600F0C3F8002820
:10254000F1DB019A02F47042A2F500535A425A415B
:102550002A60EEE740230020236016B070BD000023
:102560008B8973B59D0706460C4607D504F14703D2
:10257000236023610123636102B070BD01AB6A4631
:10258000FFF7C8FF009905463046FFF7ADF948B997
:10259000B4F90C309A05EFD423F0030343F002039F
:1025A000A381E3E70D4BB362A389206043F080036E
:1025B000A381009B6361019B20615BB1B4F90E10A4
:1025C000304600F091F828B1A38923F0030343F0CB
:1025D0000103A381A0890543A581CDE76D231008E0
:1025E0000148FFF795BF00BFD80000100148FFF772
:1025F00090BF00BFD800001010B50C46B1F90E1006
:1026000000F094F80028ABBF636DA3891B1823F476
:102610008053ACBF6365A38110BD2DE9F0411F4617
:102620008B89DB0505460C46164605D5B1F90E101B
:102630000223002200F068F8A389B4F90E1023F4F5
:102640008053A38132463B462846BDE8F04100F066
:1026500017B810B50C46B1F90E1000F055F8431C30
:10266000A38915BF606523F4805343F48053A3818D
:1026700018BFA38110BDB1F90E1000F013B800000F
:1026800038B5074D04460846114600222A601A460E
:1026900000F0A4F8431C02D12B6803B1236038BDBD
:1026A000DC00001038B5064D0023044608462B60B8
:1026B00000F04EF8431C02D12B6803B1236038BDF3
:1026C000DC00001038B5074D0023044608461146CB
:1026D0002B6000F045F8431C02D12B6803B1236046
:1026E00038BD00BFDC00001038B5064D002304469D
:1026F00008462B6000F044F8431C02D12B6803B15C
:10270000236038BDDC00001038B5074D044608468C
:10271000114600222A601A4600F042F8431C02D1FA
:102720002B6803B1236038BDDC00001038B5074DBD
:1027300004460846114600222A601A4600F038F87E
:10274000431C02D12B6803B1236038BDDC000010AC
:10275000024B58221A604FF0FF307047DC00001027
:10276000024B58221A604FF0FF307047DC00001017
:10277000024B58221A604FF0FF307047DC00001007
:10278000024B58221A600020704700BFDC00001086
:10279000024B58221A604FF0FF307047DC000010E7
:1027A000024B58221A604FF0FF307047DC000010D7
:1027B000024B58221A604FF0FF307047DC000010C7
:1027C000044A05491368002B08BF0B4618441060E3
:1027D00018467047E0000010E8000010024B582235
:1027E0001A604FF0FF307047DC000010F8B500BFF2
:1027F000F8BC08BC9E467047F8B500BFF8BC08BCE2
:042800009E46704739
:10280400696E7374616E63650000000073746174B3
:1028140069632068373A3A68617264776172653A2D
:102824003A636D343A3A53657648616E646C657206
:102834002A2068373A3A68617264776172653A3A75
:10284400636D343A3A53657648616E646C65723AE6
:102854003A676574496E7374616E63652829000074
:102864006C696268372F68617264776172652F637F
:102874006D342F53657648616E646C65722E637097
:1028840070000000696E7374616E6365000000007F
:102894007374617469632068373A3A686172647763
:1028A4006172653A3A636D343A3A53797374656D7B
:1028B4002A2068373A3A68617264776172653A3AF5
:1028C400636D343A3A53797374656D3A3A67657453
:1028D400496E7374616E6365282900006C696268CF
:1028E400372F68617264776172652F636D342F537B
:1028F400797374656D2E6370700000000000000031
:1029040000000000BD041008E1041008550410087C
:10291400890410080000000000000000000000000E
:1029240000000000A5171008A517100800000000FB
:1029340000000000190710083D071008C50610081C
:102944000000000000000000000000000000000083
:10295400A51710080000000000000000B1081008CE
:10296400D5081008990810080000000000000000B5
:102974000000000000000000A5171008000000007F
:102984000102030401020304060708092C000010D5
:102994002C2066756E6374696F6E3A2000617373E0
:1029A400657274696F6E2022257322206661696CDA
:1029B40065643A2066696C6520222573222C206C9C
:1029C400696E65202564257325730A00232D302B39
:1029D4002000686C4C00656667454647003031321C
:1029E4003334353637383941424344454600303173
:1029F40032333435363738396162636465660000D2
:102A040000000000000000000000000000000000C2
:102A140000000000000000000000000000000000B2
:102A240000000000000000000000000000000000A2
:102A34000000000000000000000000000000000092
:102A44000000000000000000000000000000000082
:102A54000000000000000000000000000000000072
:082A6400C502100873071008F9
:042A6C00A1021008AB
:102A7000000402580010025800040258010002002D
:102A800000400000000004301000000001000000C1
:102A90000090D0030090D0032C0000100000000034
:102AA000242A1008442A1008042A100800000000F4
:102AB0000000000000000000000000000000000016
:102AC0000000000000000000000000000000000006
:102AD00000000000000000000000000000000000F6
:102AE00000000000000000000000000000000000E6
:102AF000000000000000000000000000D3171008D4
:0400000508101401CA
:00000001FF
